:0200000460009A
:100000004643464200000156000000000101020084
:1000100000000000000000000000000000000000E0
:1000200000000000000000000000000000000000D0
:1000300000000000000000000000000000000000C0
:1000400000000000010403000000000000000000A8
:100050000000200000000000000000000000000080
:100060000000000000000000000000000000000090
:100070000000000000000000000000000000000080
:10008000EB04180A063204260000000000000000FD
:10009000050404240000000000000000000000002F
:1000A0000000000000000000000000000000000050
:1000B0000604000000000000000000000000000036
:1000C0000000000000000000000000000000000030
:1000D00020041808000000000000000000000000DC
:1000E0000000000000000000000000000000000010
:1000F0000000000000000000000000000000000000
:1001000000000000000000000000000000000000EF
:100110000204180804200000000000000000000095
:1001200000000000000000000000000000000000CF
:10013000600400000000000000000000000000005B
:1001400000000000000000000000000000000000AF
:10015000000000000000000000000000000000009F
:10016000000000000000000000000000000000008F
:10017000000000000000000000000000000000007F
:10018000000000000000000000000000000000006F
:10019000000000000000000000000000000000005F
:1001A000000000000000000000000000000000004F
:1001B000000000000000000000000000000000003F
:1001C000000100000010000001000000000000001D
:1001D000000000000000000000000000000000001F
:1001E000000000000000000000000000000000000F
:1001F00000000000000000000000000000000000FF
:10020000D4D4D4D4D4D4D4D4D4D4D4D4D4D4D4D4AE
:10100000D10020400020006000000000000000002F
:1010100020100060001000600000000000000000D0
:1010200000000060C4E5020000000000EFBEADDE7D
:10103000124880F3088812481249016000F036F81F
:10104000114812490022814201D004C0FBE7104838
:101050001049114A814202D008CA08C0FAE70F4875
:101060004FF47001026842EA01020260BFF34F8F41
:10107000BFF36F8F00F014F800DE00000040002086
:1010800008ED00E00040002000500020A085002076
:10109000B842002054440020C4E5026088ED00E01E
:1010A00041F6ED3CC0F2000C6047D4D41C4840F23D
:1010B000924188420CBF1B4A1B4A1C4B5360136869
:1010C00023F0800313601A481A4901BF1A480A0C1A
:1010D0008264C1F30F014164016C41F004010164B9
:1010E0001648174A824205D01649814202D008CAE2
:1010F00008C0FAE71448154A824205D014498142D3
:1011000002D008CA08C0FAE71248134A824205D042
:101110001249814202D008CA08C0FAE770470000AD
:10112000240400000080034000C00B4020C528D9E3
:1011300000C00A40AAAAFAFF00400E4000000000CA
:10114000B822006028B501000040002000200060A7
:10115000B842002000002020E0D70160E40D2120EB
:10116000D4D4D4D4D4D4D4D4D4D4D4D4D4D4D4D43F
:10117000D4D4D4D4D4D4D4D4D4D4D4D4D4D4D4D42F
:10118000D4D4D4D4D4D4D4D4D4D4D4D4D4D4D4D41F
:10119000D4D4D4D4D4D4D4D4D4D4D4D4D4D4D4D40F
:1020000000400020311000602DBB00000DB5010024
:102010002DBB00002DBB00002DBB00000000000008
:102020000000000000000000000000002DBB0000C8
:102030002DBB0000000000002DBB00002DBB0000E8
:102040002DBB00002DBB00002DBB00002DBB0000F0
:102050002DBB00002DBB00002DBB00002DBB0000E0
:102060002DBB00002DBB00002DBB00002DBB0000D0
:102070002DBB00002DBB00002DBB00002DBB0000C0
:102080002DBB000000000000000000000000000068
:102090002DBB00002DBB00002DBB00002DBB0000A0
:1020A0002DBB00002DBB00002DBB00002DBB000090
:1020B0002DBB00002DBB00002DBB00002DBB000080
:1020C0002DBB00002DBB00002DBB00002DBB000070
:1020D0002DBB00002DBB00002DBB00002DBB000060
:1020E0002DBB00002DBB00002DBB00002DBB000050
:1020F0002DBB00002DBB00002DBB00002DBB000040
:102100002DBB00002DBB00002DBB00002DBB00002F
:10211000000000002DBB0000000000002DBB0000EF
:102120002DBB00002DBB00002DBB00002DBB00000F
:102130002DBB00002DBB0000000000002DBB0000E7
:102140002DBB00002DBB00002DBB00002DBB0000EF
:102150002DBB00002DBB00000000000000000000AF
:102160002DBB00002DBB00002DBB00002DBB0000CF
:102170002DBB00002DBB00002DBB00002DBB0000BF
:102180002DBB00002DBB00002DBB00002DBB0000AF
:102190002DBB00002DBB00002DBB00002DBB00009F
:1021A0002DBB00002DBB00002DBB00002DBB00008F
:1021B0002DBB00002DBB00002DBB00002DBB00007F
:1021C0002DBB00002DBB00002DBB00000000000057
:1021D0002DBB00002DBB00002DBB00002DBB00005F
:1021E0002DBB00002DBB00002DBB00002DBB00004F
:1021F0002DBB00002DBB00002DBB00002DBB00003F
:102200002DBB000023B500002DBB00002DBB00003E
:102210002DBB00002DBB00002DBB00002DBB00001E
:102220002DBB00002DBB00002DBB00002DBB00000E
:102230002DBB00002DBB00002DBB000000000000E6
:10224000000000002DBB00002DBB00002DBB0000D6
:102250002DBB00002DBB00002DBB00002DBB0000DE
:102260002DBB00002DBB00002DBB00002DBB0000CE
:102270002DBB00002DBB00002DBB00002DBB0000BE
:102280002DBB00002DBB00002DBB00002DBB0000AE
:102290002DBB00002DBB00002DBB00002DBB00009E
:1022A0002DBB00002DBB00002DBB00000000000076
:0822B0002DBB00002DBB000056
:1022B800F0B503AF2DE9000F81B02DED108BB6B04E
:1022C8009FED2A0A0E46009008F0F6F9DFED280A7D
:1022D80019F09AFE8DED0B0AF7EE00CA96ED010A89
:1022E8002DA8DFED243A24AC8DED190A00F1040A7B
:1022F80096ED020AF0EE639AF0EE634AD6ED000A14
:102308008DED180AF0EE63EA96ED030AF0EE6C6ABA
:10231800F0EE6C7AD6ED071A8DED1E0AF0EE635AD0
:1023280096ED040AB0EE63BAF0EE6CDAD6ED082A40
:102338008DED170AB0EE631A96ED050A04F114093B
:1023480004F1040B4FF000088DED160A00F114019A
:1023580096ED060A01918DED1D0AB0EE630ACDEDEA
:102368001C0ACDED1B1ACDED1A2AD7E00000003467
:102378000000802800000000F0EE6CBADDED09DAFC
:102388009DED0AEA9DED1ACA9DED1BBA08F094F975
:10239800B5EE400AF1EE10FA00F0C3828AEE00AA08
:1023A80089EE009A88EE008A03F08AFEF7EE005A5A
:1023B8001C2028EE086A29EE0A4A28EE0A5A29EE55
:1023C800087A2AEE0A1A29EE092A35EEE03A75EE5D
:1023D800C63A68EE001A69EE002A6AEE004A24EE50
:1023E800034A25EE035A27EE033A35EEC17A75EE15
:1023F800C25A03EEA06A07EE201A05EEA02A8DED58
:10240800286A71EE846A72EE857A33EE640A34EED5
:10241800614A34EE833A35EE625ACDED2A6ACDED43
:10242800297A8DED270A8DED264A8DED253AF0EEB5
:102438004B1A9DED08BA9DED076AF0EE4F3AF0EEA3
:102448006F7A204466EE02FADDED210A29EE82FA5F
:1024580080ED005A6BEE02AA9DED295AF0EE4C2A47
:102468009DED20AA2BEE04CA9DED2B7AF0EE4E4A84
:10247800DDED1FCA26EE04EAF0EE686A69EE848A8A
:102488009DED284A26EE039A9DED2A6A29EE83DA05
:102498002BEE038A03EE80FA07EE85EA43EE858A7F
:1024A80007EE849A03EE84DA47EE80FA4BEE80AAB0
:1024B8000BEE85CA0BEE848AB0EE600ADDED1C0ACD
:1024C800F0EE6D5A46EE818A06EE87DA06EE86FA57
:1024D80004EE81EA0DEE81CA04EE879A44EE86FA8C
:1024E8000DEE878A4DEE86AAB0EE4A1AF0EE686ABB
:1024F80008F10108F0EE4D3A18F10100F0EE4F9A9C
:10250800F0EE4E4AF0EE497AF0EE6FEAF0EE4C5AF1
:10251800B0EE48BAF0EE6ADA00F023829DED1E9A1A
:1025280022EEA38A8DED201A20EEAD1A29EE2E2A6E
:102538009DED19DADDED17BA29EE243ADDED16AA7C
:102548002DEE2D7A9DED18EA2BEEAE6A9DED1DAAB3
:102558002AEEA74A0DEE0B1A8DED210A0BEEA72ADB
:10256800CDED1FCA2AEE290ACDED095A0AEEEE3A38
:10257800CDED0A4A2EEE0B5A00EECB7A0EEE251A56
:102588000AEEA42A01EEA30A09EE676A0DEE655A5F
:102598000BEEE44AF0EE4BCA21EEA99A32EE011A8C
:1025A80020EEA52A02EEA60A01EEE68AB0EE63FA4C
:1025B8006AEE260A0AEE639A0EEE6D2AF0EE67FAC4
:1025C80030EE010A36EE07AA42EEE90AF0EE668A14
:1025D80034EE05BA33EE022A30EE82CA06F0F0FA7B
:1025E8009FEDED1A39EE0A2ACDED08DA30EE010A30
:1025F800CDED07EA38EE0B1A8CEE008A81EE009AD0
:1026080082EE00AA28EE080A9FEDE41A09EE090AEC
:102618000AEE0A0AB4EE410AF1EE10FA3FF7ACAE40
:102628009DED1C0A3DEE6C3A9DED1E1A3BEEEF4AFD
:1026380030EE6D0A9DED1D2A31EE6E1ADDED0A3A77
:10264800B0EE6DAADDED09DA32EE692A9DED1B5A6E
:102658003EEE6D6ACDED029A3AEEE37ACDED058A4B
:1026680035EE4F5A8DED06FA20EE000ACDED04FA4C
:1026780021EE011AF0EE6E2A22EE022AB0EE6CBAB2
:10268800F0EE4FEA03EE030A9DED1A3A04EE041A3F
:102698009DED214A33EE683A05EE052A9DED205A54
:1026A800F0EE62CA65EE050A8DED03BA06EE060A7B
:1026B8009DED1F6A07EE071A03EE032ACDED130AF4
:1026C80024EE047A66EE061A31EE000A25EE041AA4
:1026D8008DED147ACDED121A32EE000A8DED111A35
:1026E80026EE041AB0EE632A8DED150AB0EE680ADC
:1026F8008DED101A26EE051A8DED0F1AB7EE001A99
:1027080031EE473A8DED0E3A31EE603A31EE611A0C
:102718008DED0D3A8DED0C1AB0EE691AF0EE6F9A48
:102728008DED230AF0EE42BA9DED0B0A8DED221ACB
:1027380003F0C6FCB7EE001A9DED212A9DED0F3A75
:1027480022EE002A9DED0C5A9DED124A05EE204A14
:102758009DED205A9DED106A25EE005ADDED0D2AFB
:1027680031EE601ADDED131A42EEA01A23EE013A9B
:1027780026EE016A24EE0B8A64EE0AAA24EE2DCA1C
:102788009DED0E4A33EE427A32EE032A9DED1F3A52
:1027980023EE000A9DED113A23EE011A35EE063AB2
:1027A80027EE0B9A36EE455A02EE298A42EE2CAAFB
:1027B80002EE2BCA9DED192A67EE0AFA31EE406A3D
:1027C80030EE010A9DED141A01EEA99A05EE2E8A43
:1027D80004EE201A41EEACFA00EE2E9A23EE0BDA44
:1027E80023EE0AFA27EE2DEA9DED237A63EE2D8A71
:1027F8009DED223A32EE482AB0EE434A06EE29DA37
:1028080006EE2CFA45EE03AA01EEABEA40EE03FA17
:102818009DED173A46EE2B8A9DED1D6A33EE493A37
:1028280001EE2EDA01EE04FA9DED1C4A05EE07CA08
:102838009DED1E5A34EE6A4A00EE07EA41EE078A19
:102848009DED181A22EE020A9DED1B2A35EE6F5AED
:1028580032EE4D2A23EE033A31EE4C1A36EE4F6A29
:1028680004EE040A9DED164A34EE4E4A05EE053A8A
:102878009DED1A5A22EE022A35EE685A01EE010A37
:1028880004EE043A06EE062A05EE052A30EE030A9F
:1028980070EE02BA9DED150A30EE6B0A06F090F95B
:1028A8009FED3D1AF0EE4DEAB0EE4E2AB4EE410A25
:1028B800B0EE680AF1EE10FAB0EE4F1AF0EE499A4F
:1028C800F0EE6FCAF0EE4CDAB0EE48BAB0EE6AAA93
:1028D8007FF626AF9DED150ADDED20CAB4EE6B0A32
:1028E8009DED1F0ADDED1C0ADDED1B1ADDED1A2A30
:1028F8009DED211ADDED063ADDED0A4ADDED095AB6
:10290800DDED056ADDED047A9DED03BADDED029A91
:10291800DDED08DADDED07EAF1EE10FA7FF5E6AD58
:102928001FE02DA824211AF0AAFDB7EE001A019A7B
:102938002646DAE90145DAF8003007CACBE900345F
:102948003446CBF8085089E807001020B0EE412A39
:102958009DED270AB0EE415A9DED264A9DED253A98
:1029680065E50098C0ED086AC0ED00DA80ED01BAAF
:10297800C0ED025AC0ED03EAC0ED047AC0ED054A85
:10298800C0ED069AC0ED073A36B0BDEC108B01B029
:10299800BDE8000FF0BD00BF000000340000802833
:1029A800F0B503AF4DF804BD2DED108B8AB093ED53
:1029B80001AA154693ED009A0E462AEE0A0A93EDEF
:1029C80002BA044609EE090A0BEE0B0A07F074FE78
:1029D800B868B0EE408A90ED01EA90ED00CA2EEE9C
:1029E8000E0A90ED02DA0CEE0C0A0DEE0D0A07F055
:1029F80063FED6ED018ACCEE00AA8BEE08BA28EE6B
:102A0800A81A96ED00FA8DEE002A8AEE08CA89EE19
:102A180008DA0FEE0F1AD6ED029A8EEE009A09EE3A
:102A2800A91A2BEE2AEA6CEE02BAB0EE410A0DEEB4
:102A380042EA07F041FED5ED01DAB0EE408AD5ED65
:102A480000CA6DEE09FA2DEEAD0AD5ED02EA4BEE9D
:102A580049BA2EEE0E9A0CEEAC0A4CEE6AFA0BEE60
:102A6800AB9A0EEEAE0A0FEEAF9A07F025FEB0EE67
:102A780040AAB0EE490A07F01FFEC9EE889A8CEE0C
:102A88008A1AB0EE409AC8EE888A8EEE8A0A8FEECD
:102A9800088A8DEE8A2A29EE81AA28EE80FA68EE45
:102AA80002AA8EEE09EA08EE40AA09EEC2FA48EE3A
:102AB800C1AA2AEE0A0A0FEE0F0A0AEEAA0A07F0BE
:102AC800FBFD8BEE893A201D01A98FEE001A8AEED4
:102AD800802A8AEE000A8FEE894A2BEE287A6BEE5E
:102AE800031A6BEE082A6BEE296A29EE816A2DEE2D
:102AF8000E5A68EE820A68EE005A04EE007A4DEE2D
:102B0800441A44EE012A44EE026A08EE426A0CEEC8
:102B1800435A49EEC00A48EEC15A2CEE044A2DEE3B
:102B280008AA6CEE293A6CEE284A6DEE287A2DEE4A
:102B3800299A2CEE088A0BEE4E4A4EEE023A4EEED9
:102B4800004A03EE01AA03EE029A0EEE018A43EE52
:102B5800007A45EE256A05EE067A45EE202A41EE12
:102B6800A53A41EE864A01EEA08A04EE20AA04EEB8
:102B7800259ACDED096A44EE067A8DED087ACDEDF9
:102B8800072ACDED063ACDED054A8DED048A8DED87
:102B980001AA8DED039ACDED027A00F03BF80020F2
:102BA80020600AB0BDEC108B5DF804BBF0BDF0B539
:102BB80003AF4DF8048D84B001AC0568204616F0CB
:102BC80068FF40F21C0803AEC2F2200820463146D6
:102BD8004246039515F0DBFD281D0390204631463B
:102BE800424615F0D4FD05F1080003902046314611
:102BF800424615F0CCFD05F10C0003902046314605
:102C0800424615F0C4FD204615F0C8FD04B05DF835
:102C1800048BF0BDD0B502AF8AB0044601A8FFF717
:102C280047FB9DED010A9DED051A9DED092A30EE41
:102C3800013A33EE023AB5EE403AF1EE10FA24DDED
:102C4800B7EE000A33EE000A07F036FD9DED021AD2
:102C580030EE006A9DED043A9DED064A9DED085A56
:102C680031EE431A9DED032A34EE450A9DED074ADD
:102C780034EE422A80EE063A81EE060AB5EE001AD4
:102C880082EE062A26EE011A86E0B4EE410AF1EE3B
:102C980010FAC4BFB4EE420AF1EE10FA2DDCB7EE1A
:102CA800003AB4EE421AF1EE10FA4FDD31EE031A93
:102CB80031EE400A30EE420A07F0FEFC9DED064A6E
:102CC80030EE006A9DED085A9DED021A35EE040AB1
:102CD8009DED043A9DED032A9DED074A33EE013A36
:102CE80034EE422A80EE060A82EE061A83EE063A8F
:102CF800B5EE002A26EE022A4EE0B7EE003A30EE94
:102D0800030A30EE410A30EE420A07F0D5FC9DED89
:102D1800032A30EE006A9DED075A9DED021A35EE42
:102D2800020A9DED043A9DED064A9DED082A33EE10
:102D3800013A34EE422A80EE060A82EE061A83EE43
:102D4800062AB5EE003A26EE033A25E032EE032ACB
:102D580032EE400A30EE410A07F0AEFC9DED064A1D
:102D680030EE000A9DED085A9DED021A35EE044A30
:102D78009DED043A9DED032A9DED075A31EE431A65
:102D880035EE025A84EE002AB5EE004A85EE003A86
:102D980081EE001A20EE040A84ED003A84ED012A3F
:102DA80084ED020A84ED031A0AB0D0BDF0B503AF72
:102DB8002DE9000F81B093460446007947F6037960
:102DC8001268C0F20039022801D112B93FE0EAB313
:102DD800B8B1D4F800A088460094DAF800506C69BD
:102DE80004EA090630460CF0FAFF00287CD1E00717
:102DF800F5D04FEA4820DAF800400CF0F5FF2066DD
:102E0800009CDBF80800002874D0DBF804B0D4F884
:102E180000A00BEB00080094DAF800506C6904EA93
:102E2800090630460CF0DBFF00285DD1E007F5D03D
:102E38001BF8010BDAF80040000202300CF0D4FF56
:102E4800C3452066E8D10020009C56E0D8B9D4F8E4
:102E580000A00091DAF80050D5F8148008EA0906B5
:102E680030460CF0BCFF00283ED15FEAC870F3D0B2
:102E780000982546DAF800404000013000020CF0C6
:102E8800B3FF20662C46DBF808A0BAF1000F33D058
:102E9800D4F800800094D8F800506C6904EA090658
:102EA80030460CF09CFFF8B9E007F6D04FEA0A204C
:102EB800D8F8004003300CF097FFDBF804B0206628
:102EC800009CDA44D8F80050686900EA09063046E0
:102ED8000CF085FF40B9286F4104F5D40BF8010BBD
:102EE8000120D345EED108E00120314601B0BDE80C
:102EF800000FF0BD002000E00120207100203146C5
:102F080001B0BDE8000FF0BDF0B503AF2DE9000F2B
:102F1800ADF5317D0D46044601F13400383105F137
:102F280054020AF022FDD5F8C8000CF04FFFD5F87E
:102F38002801016841F001010160D5F828110868ED
:102F480020F0020008600020C1F80801C1F818014B
:102F5800C1F828011A91C1F83801D5F8C090D9F8FC
:102F6800000020F00100C9F80000D9F8000040F482
:102F78000040C9F80000D9F8000000040CD5D9F8C1
:102F88000000000444BFD9F800005FEA004003D500
:102F9800D9F800000004EED43F20C9F80800D9F899
:102FA800000020F00100C9F80000D5F8C4A0DAF844
:102FB800000020F00100CAF80000DAF8000040F430
:102FC8000040CAF80000DAF8000000040CD5DAF86E
:102FD8000000000444BFDAF800005FEA004003D5AF
:102FE800DAF800000004EED43F20CAF80800DAF846
:102FF800000020F00100CAF80000D5F85C010CF0D0
:103008007CFED5F80080CDE9181040F26341D8F86D
:10301800480040F00100C8F84800D8F844000843C8
:10302800C8F84400D8F84400012161F38300C8F8C7
:103038004400D8F8440020F08000C8F84400D8F8CC
:10304800480040F02000C8F84800D8F8440040F490
:103058004040C8F84400D8F8440040F44470C8F828
:103068004400D8F8480040F08000C8F84800D8F874
:10307800580000070CD0D8F8580000071CBFD8F833
:1030880058005FEA007003D0D8F858000007EED166
:10309800D8F8480040F2634140F02000C8F84800E2
:1030A800D8F8440020F44040C8F84400D8F8440058
:1030B80020F4447000F58870C8F84400D5F804B0CE
:1030C800DBF8480040F00100CBF84800DBF844008A
:1030D8000843CBF84400DBF84400012161F3830086
:1030E800CBF84400DBF8440020F08000CBF8440023
:1030F800DBF8480040F02000CBF84800DBF844003B
:1031080040F44040CBF84400DBF8440040F44470FD
:10311800CBF84400DBF8480040F08000CBF84800CA
:10312800DBF8580000070CD0DBF8580000071CBF7C
:10313800DBF858005FEA007003D0DBF8580000079E
:10314800EED1DBF8480040F02000CBF84800DBF86F
:10315800440020F44040CBF84400DBF8440020F45D
:10316800447000F58870CBF84400D5F87C011790BE
:103178000CF06FFD06460CF06EFD179903461BA870
:1031880032460CF06AFDD5F868112DA84FF480522C
:103198000CF00BFDD5F89C000B90D5F8A4000A9014
:1031A800D5F8A8000590D5F8AC000490D5F88401AE
:1031B8000390D5F890010290D5F89801D5E9171237
:1031C800019031A80CF0CCFDD5E90D10D5F83021CF
:1031D8001790686D1690D5F880000890D5F884008F
:1031E8000790D5F888000690D5F8E0001490D5F837
:1031F800E8001390D5F8FC001290D5F800010F9064
:10320800D5F804010E90D5F808010D90D5F80C01F9
:103218001190D5F814011090D5F81C0115910F21C3
:103228000C904FF470400992A2F88C01A2F88E110C
:10323800D5F83461A6F88C01A6F88E11D5F8382196
:103248000092A2F88C01A2F88E114FF40072D5F802
:103258003C51A5F88C01A5F88E1131A9059820627A
:10326800049860620398A0620298E0620198206363
:103278001A98C4E9049AC4E90000C4E902000B984A
:10328800A0610A98E06104F590701AF0BEF8DDE9D3
:10329800181005F1C00EC4E9C81004F1BC01089863
:1032A80005F5907CC4F8B4000798009AC4F8B800F3
:1032B800069802F590739146C4E9273581E801091B
:1032C80002F1C00002F16001C4E9251004F1A40074
:1032D80005F1600880E8204106F59070099A06F12A
:1032E800C001C4E9211006F1600502F1C0002067A1
:1032F800159802F59073606302F160011798A06356
:103308001698E063149820641398C4E91D360E9B40
:103318006064129863650D9BA0641098A3650C9B6C
:10332800E0641198E3650F9BC4E91A211BA9206585
:1033380004F1C800C4E918324822C4F8B0C0C4E98E
:103348001F65C4E923991AF060F82DAB04F5887C51
:103358000FCB8CE80F000DF5317DBDE8000FF0BDF7
:10336800006818F02DB90A46D0E9000116F0A3BB91
:10337800084640F20001C2F22001022216F010B8FD
:10338800F0B503AF2DE9000F81B02DED108BD0B053
:1033980091ED088B0D46044691ED069BB0EE480A68
:1033A80091ED0AABF0EE680A06F02EFBB0EE40BADB
:1033B8008DED108BB0EE480AF0EE60BAF0EE680AB8
:1033C80007F076FAD5F8486DCDE90054002E00F0E4
:1033D8007484B0EE408AF0EE608A9FED1F0B53ECC8
:1033E8001A2B51EC100B19F0A9FB41EC100B9FEDB7
:1033F8001CAB05F130020D928DED060BB0EE4AFACA
:103408009FED190BB0EE4AEAB0EE4ADA4FF0010B25
:1034180051EC100B9FED160BB0EE4ACA8DED3CAB8C
:10342800F0EE6AFA8DED0EBBF0EE6AEA0996F0EE60
:103438006ADAF0EE6ACACDE9041051EC100BCDE956
:103448001A1051EC180BCDE9021051EC190B9FED35
:103458000A9BCDE90B1013E000000000E04D584135
:103468000000000000000000000000000000004014
:10347800000000000000F03F000000000000F0BF66
:10348800584618F02DFEDDE9043206460D4619F0BF
:103498005FF841EC110B9DED060B06F051FBDDE9E1
:1034A8001A32B0EE408A30462946F0EE608A19F0AA
:1034B8004FF805460E4651EC180B8DED4E8B9DF8D6
:1034C8003F2146EC105B8DED140B82F080028DF8E5
:1034D8003F21DDE9023219F031FBCDE912100BF181
:1034E80002009DED4E0B31460A900BF1010053ECA2
:1034F800102B4390284618951796CDE9413219F0BC
:1035080025FD4FF0000A00265546CDE93F10CDF8BD
:1035180064B050468DED30FB8DED3AAB18F0E0FD10
:1035280002460B4641EC1A0BDDE90B10CDE92E32B1
:1035380019F00CFD41EC180BB0EE480AF0EE680AE1
:1035480007F0B6F9B0EE40FAB0EE480AF0EE60FACD
:10355800F0EE680A06F058FA8DED4C0BB0EE490A09
:10356800B0EE4A1AF0EE690AF0EE6A1A06F0E8FAC6
:10357800B0EE408A5846B0EE4B0A5146F0EE608AEB
:10358800F0EE6B0A02F05CF951EC180B53EC102BBF
:1035980019F0DCFCDA4541EC100B38BF0135BAF103
:1035A800000F359522D0CDE949100AEB0B08439856
:1035B8001FED518B34184B96444540F2B38253ECBF
:1035C800182BDDE91A1019F0B9FA02460B4618F063
:1035D800BFFF41EC100B05F0F6FA53EC102BDDE9B8
:1035E800491019F0B3FC4B9E41EC100B8DED460BC6
:1035F800B0EE490AB0EE4A1A8DED32EBF0EE690AE8
:103608008DED36DBF0EE6A1A8DED38CB06F098FAC0
:10361800B0EE408A4398B0EE4B0A5146F0EE608A0D
:10362800F0EE6B0A02F00CF951EC180B53EC102B6E
:1036380019F08CFC41EC1E0BBAF1000F21D0CDE93A
:103648004A1043981FED768B0AEB00080A988419F4
:10365800444540F2C78253EC182BDDE91A1019F0E3
:103668006DFA02460B4618F073FF41EC100B05F09B
:10367800AAFA53EC102BDDE94A1019F067FC41EC6B
:103688001E0B9DED109BB0EE490AF0EE690A03F09F
:103698007BFA1FED8BCB8DED440BB0EE4C1A9DEDF4
:1036A800140BF0EE6C1A06F04BFAB0EE408AB0EE4E
:1036B8004C1AB0EE4A0AF0EE608AF0EE6A0AF0EEB2
:1036C8006C1A06F03DFA51EC180B53EC102B19F05C
:1036D800B6FD41EC100B05F076FA8DED2C0BB0EE33
:1036E800490AF0EE690A07F0E3F80D9E5246DDF844
:1036F80064B08DED2A0B3046594601F066FEB0EEF7
:10370800408A3046F0EE608A01F05AFEB0EE40AAD8
:103718003046F0EE60AA01F04EFEB0EE40BA3046F8
:1037280059465246F0EE60BA01F07DFE51EC1A0B94
:1037380053EC1B2BB0EE40CAF0EE60CA19F07FFDC7
:1037480053EC1C2B19F002FC02460B4651EC180BEB
:1037580018F0FEFE02460B4651EC1F0BCDE949015D
:1037680019F0F4FB0446884630465946524601F0A3
:103778002CFE30468DED220B01F022FEB0EE40BA51
:103788003046F0EE60BA01F016FEB0EE40FA304670
:1037980059465246F0EE60FA01F045FEB0EE40AAF6
:1037A800304659465246F0EE60AA01F025FE3046F2
:1037B8008DED260B01F004FE30468DED200B01F057
:1037C800FAFD3046594652468DED1C0B01F042FE7B
:1037D8003046594652468DED1E0B01F00DFEB0EEF7
:1037E80040CA3046F0EE60CA01F0EAFDB0EE40DAB9
:1037F8003046F0EE60DA01F0DEFDB0EE408A304689
:1038080059465246F0EE608A01F024FE51EC1D0B39
:1038180053EC182BB0EE409AF0EE609A19F00FFDB9
:1038280053EC192B19F092FB02460B4651EC1C0B7A
:1038380018F08EFE9DED4C0B02460B4651EC100B1A
:10384800CDE94B0119F082FB02460B462046414662
:1038580018F07EFEDDE94132CDE9240119F076FB4E
:103868009DED2C0B8046894651EC100B9DED2A0BE3
:1038780053EC102B19F062F902460B4651EC1E0B63
:1038880019F064FB9DED440B05460C46DDE9171065
:1038980053EC102B19F05AFB9DED460B02460B46D4
:1038A80051EC100B4490469119F050FB2A462346E0
:1038B80019F0C5FC42464B46CDE9291019F046FBE4
:1038C8009DED3C0B02460B4651EC100B18F040FEE8
:1038D8003C9053EC1F2B2C9151EC1B0B9DED0EBB18
:1038E80019F0ADFC53EC1A2B19F030FB9DED220BAF
:1038F80002460B4651EC100B18F02AFE02460B4606
:10390800DDE94B0119F022FB9DED200B04460D4625
:1039180051EC100B9DED1C0B53EC102B19F08FFC88
:103928009DED1E0B53EC102B19F010FB9DED260B93
:1039380002460B4651EC100B18F00AFEDDF82491F4
:103948000246DDF828810B464846414619F0FEFA42
:1039580002460B462046294619F071FC04460D46DE
:10396800DDE91210DDE92E3219F0F0FA22462B4675
:103978002690229119F0EAFA449D0246469C0B468D
:103988002846214619F0E2FA9DED300B02460B4617
:1039980051EC100B18F0DCFDCDE92F10DDE93F10DC
:1039A800DDE9242319F0D2FA02460B4628462146BF
:1039B80019F0CCFA9DED320B02460B4651EC100B78
:1039C80018F0C6FD329030462E915946524601F005
:1039D8002AFD53EC102B4846414619F0B7FA044625
:1039E8000D4630465946524601F01DFDB0EE409A4C
:1039F800304659465246F0EE609A01F02BFDB0EE83
:103A0800408A304659465246F0EE608A01F022FD5F
:103A180053EC102BDDF82C814C9E4046314619F0B2
:103A280095FA02460B462046294618F091FDDDE935
:103A380041328946CDF894A0824619F087FA0246A9
:103A48000B46DDE9291019F081FA9DED360B024687
:103A58000B4651EC100B18F07BFD53EC192B3690EC
:103A68002A91404631469FEDF69B19F06FFA53ECC8
:103A7800182B05460E46DDE9490119F067FA02469A
:103A88000B462846314619F0DAFB02460B462698C3
:103A9800229919F05BFA449D0246469C0B4628463B
:103AA800214619F053FA9DED380B02460B4651ECAE
:103AB800100B18F04DFD80460E46DDE93F105246CA
:103AC8004B4619F043FA02460B462846214619F0A0
:103AD8003DFA9DED3A0B02460B4646EC1C8B51EC29
:103AE800100B18F035FD41EC1A0B36982A99359DC4
:103AF80041EC1D0BDDE92F1041EC1F0B32982E997C
:103B080041EC1E0B3C982C9941EC100B259858451C
:103B18008DED3C0B80F0C6806E425D45AA467FF66F
:103B2800F8ACBFE0204618F0DBFA02460B4651EC31
:103B3800180B4FF00009444538BF4FF0010919F040
:103B480005FA41EC180B4445BFF439AD4C444445E3
:103B58003FF635AD834620460E4618F0C1FA0246B8
:103B68000B46002558463146444538BF012519F013
:103B7800EDF941EC180B4445BFF421AD2C44444504
:103B88003FF61DAD814620460E4618F0A9FA0246BA
:103B98000B46002548463146444538BF012519F0F3
:103BA800D5F941EC180B4445BFF409AD2C44444504
:103BB8003FF605AD814620460E4618F091FA0246BA
:103BC8000B46002548463146444538BF012519F0C3
:103BD800BDF941EC180B4445BFF4F1AC2C44444505
:103BE800A0D9ECE4204618F07BFA02460B4651ECCB
:103BF800180B0025444538BF012519F0A7F941ECF9
:103C0800180B4445BFF427AD2C4444453FF623AD7B
:103C1800834620460E4618F063FA02460B464FF0DC
:103C2800000958463146444538BF4FF0010919F09C
:103C38008DF941EC180B4445BFF40DAD4C44444597
:103C48003FF609AD834620460E4618F049FA02466B
:103C58000B46002558463146444538BF012519F022
:103C680075F941EC180B4445BFF4F5AC2C444445B8
:103C78003FF6F1AC814620460E4618F031FA02466E
:103C88000B46002548463146444538BF012519F002
:103C98005DF941EC180B4445BFF4DDAC2C444445B8
:103CA800A0D9D8E4099E0020B34538BF012018D216
:103CB8008344B3457FF6E4AB13E09FED5FABB0EE12
:103CC8004ACA8DED3CABB0EE4ADAB0EE4AEAB0EE45
:103CD8004AFAF0EE6ACAF0EE6ADAF0EE6AEAF0EE54
:103CE8006AFA00989DED101B90ED020B51EC110B38
:103CF80053EC102B19F0A3FA41EC180BB0EE480A5C
:103D0800F0EE680A05F080FEB0EE409AB0EE480A80
:103D1800F0EE609AF0EE680A06F0CAFD9DED3C1BD5
:103D280053EC102B55EC116B4492469330462946C0
:103D380019F00CF959EC1EBB804653EC192B0C46B4
:103D480058464946CDE94B2319F000F9DDF804A09F
:103D580002460B46404621468AED08CB8AED02FB17
:103D680019F06DFACDE9491030464B9E29464C9C16
:103D78003246234619F0EAF8054688465846494629
:103D8800DDF810B1DDF818915A464B4619F0DEF807
:103D980002460B46DDE9491041EC180B284641461E
:103DA80018F0D6FBCDE9491051EC1D5B324623468D
:103DB8004391284619F0CAF858EC1A4B0646429126
:103DC8005A464B462046414619F0C0F80B464299E0
:103DD8000246304618F0BCFBCDE94110284643990D
:103DE8005A464B4619F0B2F8DDE94B2305460E4614
:103DF8002046414619F0AAF802460B46DDE9411073
:103E080041EC190B2846314619F019FA41EC100B10
:103E1800DDE949108AED0A9B8AED060B41EC110B8E
:103E28008AED008B8AED041B50B0BDEC108B01B0FD
:103E3800BDE8000FF0BD00BF00000000000000005A
:103E4800000000000000F0BF704780B56F4684B0E6
:103E58000A4650F8041B81B1039040F2440040F236
:103E68004001C2F2200003AB00901046C2F22001CC
:103E7800032215F0BAFD04B080BD029040F2300074
:103E880040F22C01C2F2200000901046C2F220013C
:103E980002AB022215F0A9FD04B080BD80B56F46C3
:103EA80000F002F8FEDED4D4B0B502AFADF52C5D5B
:103EB8008CB008AC0DF58059204609F0AEFA0DF12A
:103EC800080E21460EF5ED50FFF71EF809F55D6363
:103ED8000DF1080E0EF5ED55D9F8C40D0ECB0DF504
:103EE800F07C7B902846D9F8B8BDD9F8F86DD9F898
:103EF800E88D8CE80E0009F04AFC78A9284609F0FC
:103F08004BFC48F27C140DF1080EC4F21F040EF5A8
:103F1800ED55D4F874014FF0000A4FF6A100C4F82B
:103F28007401D4F87011C4F870012846002109F012
:103F380012FD4046294600F085FF0546206802210B
:103F48000DF1080E61F303002060206820F01000D6
:103F5800206048F24050C4F21F004160626861F37B
:103F680003026260626822F0100262600160B16060
:103F78004FF41651C6F808A0B06940F44020B0616B
:103F8800D6F81880B06920F44020B061B06A40F4D7
:103F98008040B062B06A40F40040B0620EF5ED5067
:103FA80009F0CFFCD9F8AC1D41F6FF72D9F8A80D7D
:103FB8004EF20003914238BF0A4631690DF5805E22
:103FC800CEF2FD0320241940202841EA02019EF880
:103FD800B02D28BF2046042898BF042041EA42415A
:103FE8004FF0F85202EB006000F0F85008433061DF
:103FF800B1694FEA984060F393417BA8B16109F039
:10400800B6FB07908846DBF8000040F2E7310DF573
:10401800805E022320F00100CBF80000DBF80400EA
:1040280061F30B00CBF80400DBF80000362120F424
:10403800B8608030CBF80000DBF8000020F0010009
:10404800CBF80000DBF8080040F02000CBF80800AF
:10405800DBF80C0020F02000CBF80C00DBF80000A7
:1040680020F40070CBF80000DBF8000040F00200FC
:10407800CBF80000DBF8080040F00100CBF808009E
:10408800DBF80C0020F00100CBF80C00DBF808008E
:1040980040F00200CBF80800DBF80C0020F002002A
:1040A800CBF80C00DBF8080040F00400CBF808005F
:1040B800DBF80C0020F00400CBF80C0001208DF890
:1040C800044280904FF07E507F90CDE97D004FF400
:1040D8008070AEF890000DF1100E7CA80EF5845299
:1040E8007C9500F02AFF0DF5805E9EF8900022284E
:1040F8000ED10DF5805E7CA804210623AEF8ACAD88
:104108000DF1080E0EF5ED52C9F8A8AD00F015FF37
:10411800FA20CBF81000DBF8000040F00100CBF8E3
:104128000000DBF80800C0070CD1DBF80800C00766
:1041380004BFDBF808005FEAC07003D1DBF80800B1
:10414800C007EED0DBF808000DF5805E04210623D9
:1041580040F00100CBF80800DBF8000020F0010077
:10416800CBF8000043F6A360C3F65C407F90CDE92E
:104178007D004FF44840AEF8AC0D4FF0C8200DF16B
:10418800080EC9F8A80D7CA80EF5ED5200F038FF0E
:10419800FA20CBF81000DBF8000040F00100CBF863
:1041A8000000DBF80800C0070CD1DBF80800C007E6
:1041B80004BFDBF808005FEAC07003D1DBF8080031
:1041C800C007EED0DBF808000DF5805E0421062359
:1041D80040F00100CBF80800DBF8000020F00100F7
:1041E800CBF800000020AEF8AC0D0DF1080EC9F8B0
:1041F800A80D7CA80EF5ED5200F09FFEFA20CBF832
:104208001000DBF8000040F00100CBF80000DBF8FC
:104218000800C0070CD1DBF80800C00704BFDBF8B2
:1042280008005FEAC07003D1DBF80800C007EED0D1
:10423800DBF8080082AE362140F00100CBF8080018
:10424800DBF8000020F00100CBF80000304619F040
:1042580016F97CAC002132463623204600F06DFE6C
:104268000DF5805E94200B2101238EF8A80D0DF129
:10427800080E0EF5ED52204600F0C2FEFA20CBF8EB
:104288001000DBF8000040F00100CBF80000DBF87C
:104298000800C0070CD1DBF80800C00704BFDBF832
:1042A80008005FEAC07003D1DBF80800C007EED051
:1042B800DBF808007CAC82AA002140F00100CBF8B2
:1042C8000800DBF80000362320F00100CBF80000DE
:1042D800204600F032FE0DF5805E79200121012391
:1042E8008EF8A80D0DF1080E0EF5ED52204600F0DF
:1042F80087FEFA20CBF81000DBF8000040F0010040
:10430800CBF80000DBF80800C0070CD1DBF8080088
:10431800C00704BFDBF808005FEAC07003D1DBF810
:104328000800C007EED0DBF8080082AA0021362377
:1043380040F00100CBF80800DBF8000020F0010095
:10434800CBF800007CA800F0F8FD44F2200A40F207
:104358002341C4F20C0ADAF8280040F00100CAF838
:104368002800DAF824000843012120F04000CAF8A8
:104378002400DAF8240061F38300CAF82400DAF88C
:10438800240020F08000CAF82400DAF8280040F061
:104398002000CAF82800DAF8240040F44040CAF89F
:1043A8002400DAF8240040F44470CAF82400DAF84B
:1043B800280040F08000CAF82800DAF83800000722
:1043C8000CD0DAF8380000071CBFDAF838005FEACA
:1043D800007003D0DAF838000007EED1DAF82800C8
:1043E80040F02000CAF82800DAF8240020F4404001
:1043F800CAF82400DAF8240020F4447000F5887024
:10440800CAF824000BF09BFE40F6FF720BF09AFEF0
:1044180048F27C150524C4F21F05D5F8782122EA54
:1044280001010843C5F8780155F8780C64F30300D6
:1044380045F8780C0BF083FE40F6FF720BF082FE15
:10444800D5F87C2122EA01010843C5F87C0155F81A
:10445800740C64F3030045F8740C0BF070FE40F61E
:10446800FF720BF06FFED5F88C2122EA0101084398
:10447800C5F88C0155F8640C64F3030045F8640C26
:104488000BF05DFE40F6FF720BF05CFED5F888215C
:1044980022EA01010843C5F8880155F8680C64F35D
:1044A800030045F8680C90A807F02AFD40F2540C68
:1044B8009AAAC2F2200CACF10E01043200239A939E
:1044C80011F80E6FD6549A9B4E7801339A938C78D4
:1044D800D65401F10E069A9BC87801339A930D7948
:1044E800D4549A9B01339A93D0549A984B790130BB
:1044F8009A9015549A9801309A9013549A988B79F7
:1045080001309A9013549A98CB7901309A901354A9
:104518009A980B7A01309A9013549A984B7A0130F2
:104528009A9013549A988B7A01309A9013549A98C7
:10453800CB7A01309A9013549A980B7B01309A9059
:1045480013549A984B7B01309A9013549A98431CB1
:104558000CF1460086429A93B2D190A89AA907F026
:10456800D9FC9FED1E0A07F037F8B0EE408A9FEDA0
:104578001C0A07F031F8B0EE409A9FED1A0A07F0CE
:104588002BF8B0EE40AA9FED180A07F025F8B0EE18
:1045980040BA9FED170B9FED181BB0A89FED182B85
:1045A80000F0AEFD0DF1080E9FED170B0EF5ED5462
:1045B800204600F069FFD9F8A80DD9F8AC1D0843CA
:1045C80048D140F29A0040F2D002C2F22000C2F272
:1045D80020022B2113F0E3FDFEDE00BF1F85A14062
:1045E8001F85A1410060FC436133D64300BF00BF73
:1045F800E63FA4DFBEB642402D431CEBE28A5EC014
:1046080005871744A4A69D3F0000000000909F4026
:10461800004B62470000B4435555E53E027C124A00
:1046280064A115CA4D507C3FB6C3B2430646C1B417
:10463800000034431283BB41DB0F494063537C3F86
:10464800C13A8C433333533B00C07345DB0F493FBA
:10465800E02E654204F10801B6A840F6185218F099
:10466800D6FE38EE490A1FED161A30EE0A0A1FED7B
:1046780017AAF0EE4A0A30EE010AB3EE011A3BEE31
:10468800000A30EE010A1FED1C1A30EE010A1FED78
:104698001D1A30EE010A1FED1E1A30EE018A1FEDB9
:1046A8001F1A1FED1F0A08EE010A18F063F91FED23
:1046B800211AF0EE4A0A1FED223A08F01F001FEDFA
:1046C800232A012508EE012A1FED25CA80EE031AC8
:1046D80005FA00F0069082EE03BA1FED282A21EEB3
:1046E8000C9A1FED290A08EE020A18F043F92BEE7E
:1046F8000CBA04F10C00F0EE40BA029039EE09CA87
:1047080004F130005FED31CA5FED31DA5FED31EA77
:104718005FED31FA05900DF6FC7000F108010430E8
:1047280004910390DDE90610C0F88C103220CBF814
:104738001000DBF8000040F00100CBF80000DBF8C7
:104748000800C0070CD1DBF80800C00704BFDBF87D
:1047580008005FEAC07003D1DBF80800C007EED09C
:10476800DBF8080040F00100CBF80800DBF8000097
:1047780020F00100CBF800005AF8200C07204AF876
:10478800200CDAF80000C0070CD1DAF80000C007E6
:1047980004BFDAF800005FEAC07003D1DAF800005D
:1047A800C007EED0DAF80400ADF8F40F5AF8200C80
:1047B80008204AF8200CDAF80000C0070CD1DAF813
:1047C8000000C00704BFDAF800005FEAC07003D138
:1047D800DAF80000C007EED0DAF80400ADF8F60FFA
:1047E8005AF8200C0C204AF8200CDAF80000C00710
:1047F8000CD1DAF80000C00704BFDAF800005FEA5D
:10480800C07003D1DAF80000C007EED0DAF804006F
:10481800ADF8F80F5AF8200C0B204AF8200CDAF8FB
:104828000000C0070CD1DAF80000C00704BFDAF8AE
:1048380000005FEAC07003D1DAF80000C007EED0CC
:10484800DAF80400ADF8FA0F48F29C50C2F2000002
:104858000168C81E18BF0120032988BF4FF0FF3028
:1048680000281CBFC0B2FF2836D140F2EC000DF67C
:10487800F472C2F220000DF6F871C9F89000042015
:10488800C9F8B02D0DF6FA72C9F8A81D49F6C50188
:10489800C9F8B82D0DF6F672C9E925040DF1100E08
:1048A800C9F89C000020C0F20101C9F8C02D40F2EF
:1048B8001412C9F8A00000900EF58450C9F8AC1D78
:1048C800C2F22002C9F8B41DDC23C9F8BC1DC9F81E
:1048D800C41D03210BF0BCF80DF5805E00207C9E02
:1048E80024218EF898000DF1100EC9E92400A04685
:1048F800C9F8B40D0EF58450C9F8B80D092007F8A9
:10490800401CA7F14001C9F8AC1D47F60371C9F86E
:10491800A85DC0F20031C9F8B05DC9F8BC0D9DF8BA
:104928000442706908400BF052FA002840D13069FF
:104938000DF5805E2146424640F4407030614FF4E8
:10494800FE4070617CA8C9F8080002208EF80C00AF
:104958000DF1080E0EF58050FEF728FA40BB0DF158
:10496800080E029A0EF580502146FEF71FFAF8B994
:10497800D9F80800046847F603706669C0F2003089
:1049880030400BF02CFA98B9F007F4D004200BF063
:104998002BFA206647F603706669C0F20030304093
:1049A8000BF01DFA002808BF16F48071F2D0002819
:1049B800BDF8F40F444600EE100ABDF8F80FB8EE43
:1049C800400A01EE100AB8EE411A20EE2C0A21EE38
:1049D8002C1A80EE2D0AC1EE2D0A01F0EDFA30EE08
:1049E8002EFAB5EE40FAF1EE10FA00F0ED81BDF8BE
:1049F800F60F00EE100ABDF8FA0FB8EE400A01EE05
:104A0800100AB8EE411A20EE2C0A21EE2C1A80EE7C
:104A18002D0AC1EE2D0A01F0CFFA30EE2E0AB5EEBE
:104A2800400AF1EE10FA00F0DD8120EE2FDAB0EE48
:104A38004D0A06F0A1F82FEE2FFAB0EE40EAB0EEDC
:104A48004F0A06F099F86EEE008AB0EE4D0A03F0B0
:104A58008BFEB0EE40EAB0EE4D0A06F08DF8B0EEEF
:104A680040DAB0EE4F0A03F07FFE2DEE000A48F25E
:104A78009C5049ED018AC2F2000089ED00EA89EDF7
:104A8800010A0168C81E18BF0120032988BF4FF01A
:104A9800FF3000281CBFC0B2FF282ED140F24410BE
:104AA80049F28D32C2F22000C0F20102C9F890002A
:104AB8000320C9E925040DF1100EC9F89C000DF674
:104AC800FC70C9F8A80D00210398E823C9F8B00DB7
:104AD8000498C9F8B80D0EF58450C9F8AC2DC9F87A
:104AE800B42DC9F8BC2D40F21412C9F8A010C2F2B6
:104AF8002002009103210AF0ABFF0DF5805E002033
:104B08007C9E24218EF898000DF1100EC9E924002E
:104B1800C9F8B40D0EF58450C9F8B80D092007F886
:104B2800401CA7F14001C9F8AC1D47F60371C9F84C
:104B3800A85DC0F20031C9F8B05DC9F8BC0D9DF898
:104B48000442706908400BF042F9002840D13069EE
:104B58000DF5805E2146424640F4407030614FF4C6
:104B6800FE4070617CA8C9F8080002208EF80C008D
:104B78000DF1080E0EF58050FEF718F940BB0DF147
:104B8800080E029A0EF580502146FEF70FF9F8B983
:104B9800D9F80800046847F603706669C0F2003067
:104BA80030400BF01CF998B9F007F4D004200BF052
:104BB8001BF9206647F603706669C0F20030304082
:104BC8000BF00DF9002808BF16F48071F2D0002808
:104BD8000DF1100EB6A90EF5845640F6185230465F
:104BE80018F015FCB0A94046454600F019FB3046C0
:104BF80000F0DEFB04460598314640F6185218F0DE
:104C080006FC0DF5005E4146CEF8F04AA7F14004D7
:104C18002046FEF7B5FB0DF1080E21460EF5805033
:104C280001F076F899ED0A0B99ED028B51EC100B17
:104C380099ED06AB17F0FCF851EC1A2BC9F8800077
:104C480058EC184B104617F0F3F8C9F87C002046CA
:104C580041462C4617F0ECF8B0EE490AC9F878003E
:104C680005F08AFFB0EE6BDA9FED701A00EE01DAFC
:104C7800B0EE4C0A05F080FF9FED6D1ADFED680A73
:104C880000EE01DAB0EE4D0A17F074FE9FED651ADA
:104C980080EE010A9FED641A20EE01DAB0EE4D0AAB
:104CA80003F062FDB0EE40EAB0EE4B0A03F05CFDA3
:104CB800B0EE40FAB0EE4D0A05F05EFFF0EE408A25
:104CC800B0EE4B0A05F058FFF0EE409AB0EE4D0AF0
:104CD80005F052FFB0EE40DAB0EE490A03F044FDA9
:104CE8009FED541A9FED548A00EE018AB0EE4C0AEB
:104CF80003F03AFD9FED511A2FEE282AD9E9001248
:104D08000DF1180E00EE018A9FED4D1A29EE8D0A5D
:104D1800C9F8B02D0EF583520DF1040E59F8040CA4
:104D28002B46C9F8AC1D0EF58451C9F8A80D3046BC
:104D3800009228EE011A20EE010A22EE012A2EEE38
:104D4800011A89ED230A89ED222A89ED211AFDF736
:104D580027FE48F29C500125C2F200000168C81ED7
:104D680018BF0120032988BF4FF0FF3000281CBF5F
:104D7800C0B2FF287FF4D6AC40F268100DF1100ED7
:104D8800C2F220000021C9F8A80DA7F14000C9F817
:104D9800B00D41F69B30C0F2000040F2141247F803
:104DA8003C0C0EF5845047F8400C2046C9F8B81D55
:104DB800C2F2200200910321F323C9F8AC5DC9F8BF
:104DC800B45D0AF045FEADE4182040F20201C9F8CE
:104DD800AC0D40F2BC10C2F22001C2F22000C9F8AA
:104DE800A81D0CE040F202011820C2F22001C9F807
:104DF800AC0D40F2AC10C9F8A81DC2F220000DF1AC
:104E0800080E40F29C13009040F270100EF5ED521F
:104E1800C2F22000C2F220032B2113F075FAFEDE45
:104E28000000B44300003443DB0F4940B81EF53F8F
:104E38000AD7A33C69E388BC9604803FF7CC12B933
:104E4800EBAA0E4DF0B503AF4DF8048D82B00446C1
:104E580048F2FC00C4F21F000D46016803224FF01F
:104E6800010862F303010160016841F0100101606B
:104E7800C0F8D083416862F303014160416841F0A2
:104E880010014160C0F8D4830220206120698007A6
:104E980040D4A7F1160029460BF0A3F817F8151C03
:104EA80017F8160C17F8142C01F03F0160F30D21C8
:104EB80017F8133C02F03F0041EA004003F03F01BD
:104EC80040EA0160A064606A20F0070628460BF0FB
:104ED8008DF86968304360624FF20006A06ACFF22D
:104EE800F00617F8122C6FF31F31304017F8113CF9
:104EF80062F31B60084403F00F0140EA0140A0621E
:104F08004FF00110A0652046C4F8108002B05DF88B
:104F1800048BF0BD0020206121698907B9D5206183
:104F28002169890742BF206121695FEA8171B0D593
:104F3800206121698907EED4ABE7F0B503AF2DE90D
:104F4800000B8AB0064690F8149007F8391C002028
:104F5800A7F13901356805900120CDE9062347F608
:104F680003780490C0F20038CDE90201686900EACC
:104F7800080420460AF02BFFC8B9286902AA494646
:104F880040F4407028614FF4FE40686102208DF8BB
:104F9800240008A80896FDF709FF38B902A8494671
:104FA80000F10C0208A8FDF701FF30B10C46012002
:104FB80021460AB0BDE8000BF0BD089805686E6987
:104FC80006EA080420460AF00AFF0028EFD1F00795
:104FD800F5D004200AF008FF28666E6906EA08047E
:104FE80020460AF0FCFE002808BF16F48071F4D0B1
:104FF8000028DCD1002021460AB0BDE8000BF0BD36
:10500800F0B503AF2DE90007C6B00DF1040A0E464E
:105018000AF101058146FF211C462846904617F0F3
:10502800C1F88DF80460661C56D2B6F5807F5CD84E
:1050380028464146224618F050F9CDE942A60120FB
:10504800D9F8006047F6037A4190C0F2003A99F81F
:105058001480706900EA0A0420460AF0B8FE90B984
:10506800306941AA414640F4407030614FF4FE4037
:10507800706102208DF8140144A8CDF81091FDF755
:1050880095FE30B10C460120214646B0BDE8000728
:10509800F0BD44980668756905EA0A0420460AF0D6
:1050A8009EFE0028EFD1E807F5D004200AF09CFE08
:1050B8003066756905EA0A0420460AF090FE002861
:1050C80008BF15F48071F4D00028DCD100202146F7
:1050D80046B0BDE80007F0BD40F2DC120120C2F284
:1050E8002002002114F0D0FEFEDE40F2DC12304631
:1050F800C2F220024FF4807114F0A6FEFEDED4D472
:10510800F0B503AF2DE9000F81B02DED068BB0EEA1
:1051180040AA8046F0EE60AA9FED330B5BEC114B82
:1051280059EC105BB0EE428AB0EE419AF0EE628A1A
:10513800F0EE619A22465B462846494618F07FF809
:105148009FED2B0B5AEC106B3246534618F061F961
:1051580010B19FED299B0DE0204659462A464B4643
:1051680017F0F6F93246534618F053F9002818BFDD
:105178009FED239B9FED240B51EC1A0B5BEC106BFE
:1051880032465B4617F0E2FE9FED210B55EC104BC3
:1051980022462B4617F0D2FC81468A4651EC190B61
:1051A80032465B4617F0D2FE22462B4617F0C6FC65
:1051B8009FED190B04460D4651EC180B53EC102BC0
:1051C80017F0C4FE41EC100B45EC114B4AEC129B56
:1051D80088ED040B88ED021B88ED002BBDEC068BD7
:1051E80001B0BDE8000FF0BD00000000008056408F
:1051F800BBBDD7D9DF7CDB3D1842CEFBFF7F5640D5
:105208001842CEFBFF7F56C06891FF5FFB21094023
:1052180000000000008066400000000000408F4051
:10522800F0B503AF2DE9000F81B02DED048B84B0EC
:1052380091ED029B0C460390B0EE490A0291F0EE04
:10524800690A04F0E1FB9FED508BB0EE481AF0EECE
:10525800681A04F075FC9FED4E1B51EC100B53ECD3
:10526800112B17F073FE9FED4C0B53EC102B17F01E
:105278006FF941EC100B03F0A6FC9FED491B53ECB2
:10528800102B51EC110B17F059FC94ED040B05464B
:10529800884659EC10AB52464B4617F059F9B0EE18
:1052A800490A0646F0EE690A0C4605F001FB53EC84
:1052B800102B3046214617F049FE9FED3B0B8B46DD
:1052C8000190284653EC102B414617F03FFE02464A
:1052D8000B465046494617F03BF9B0EE490A0446DA
:1052E800F0EE690A0D4604F08FFB53EC102B2046B4
:1052F800294617F02BFEB0EE481A0446F0EE681A5D
:1053080001980E464BEC100B04F01AFCB0EE481A4C
:10531800F0EE681AB0EE409AF0EE609A46EC104B48
:1053280004F00EFC51EC190B53EC102B17F010F98C
:1053380041EC100B03F047FC53EC102B2046B0EE69
:10534800408A3146F0EE608A17F0F8FB41EC100B0A
:1053580003F0CAFDDDF808E0DDF80CC09EED001B87
:105368009EE87E0060467EC08CED061B8CED080B27
:105378008CED0A8B04B0BDEC048B01B0BDE8000FC6
:10538800F0BD00BF00BF00BF0000000000000040EB
:10539800F094FEF1906B7BBF000000000000F03F2E
:1053A80000000040A6545841D6021CDE28C9EF3F31
:1053B800D0F8100D704700F5506090ED000B704765
:1053C80000F6085090ED000B70470346481C484310
:1053D80002EB5000013867289EBF03EB401090EDA8
:1053E800000B704780B56F4640F210226821C2F268
:1053F800200212F0EBFEFEDE0346481C484302EB97
:105408005000013867289EBF03EB401090ED020B57
:10541800704780B56F4640F220226821C2F2200210
:1054280012F0D4FEFEDE0346481C484302EB50004F
:10543800013867289EBF03EB401090ED040B7047BE
:1054480080B56F4640F230226821C2F2200212F085
:10545800BDFEFEDE0346481C484302EB50000138FF
:1054680067289EBF03EB401090ED060B704780B590
:105478006F4640F240226821C2F2200212F0A6FED6
:10548800FEDED4D4D4D4D4D4F0B503AF2DE9000FC4
:1054980081B02DED048B84B0B0EE408A0646F0EE64
:1054A800608A9FED450B55EC108B5AEC189B4246D1
:1054B8002B464846514617F012FF0024002870D0AA
:1054C8009FED3F0B4846514653EC102B17F0A1FFB8
:1054D80000284FF0000065D09FED3B0B06F6085002
:1054E8000290484653EC102B514617F031F89FEDC7
:1054F800380B53EC102BCDE9002317F01FFB41ECC0
:10550800100B05F099FA9FED341B0396464658ECAC
:1055180010BB53EC112B5846414616F009FE0446C1
:105528005846414617F0E4F99FED2D0B002C18BFA3
:105538000446584653EC102B414617F0D0FE00287D
:1055480018BF4FF0FF34204616F0CAFDDDE90023EE
:1055580017F0FCFC32462B4616F0FAFF9FED220BA3
:1055680080460E46484653EC102B514617F051FF23
:1055780046EC198B0D25002818BF0A25B0EE490AFC
:10558800039EF0EE690A214606F108002A4600F05B
:105598002FF802980124C6F8185D80ED009B80ED75
:1055A800028B0020C6E9004004B0BDEC048B01B0BA
:1055B800BDE8000FF0BD00BF0000000000B09D4036
:1055C8000000000000A49F400000000000B09DC043
:1055D800000000000000144000000000000000006F
:1055E8000000E0FFFFFFEF410000000000409F4087
:1055F800F0B503AF2DE9000F81B02DED048BADF5AB
:10560800536D01900CA80B91B0EE408A4FF4506195
:105618001446F0EE608A17F08FFA9FED850B51EC77
:10562800180B53EC102B16F02EFD002803944DD0C8
:10563800002C00F0C6800B98192800F2E18040F297
:10564800502845F2E06901254FF0FF3CC2F22008DE
:105658004FF0D00BC2F22009681C0021A54238BFC8
:105668000121684305EB010E00220CEB500A0AEBFE
:105678000200672800F2B38000FB0B860B99AA4250
:1056880000FB0B9396ED320B06EBC10603EBC1044E
:1056980093ED321B0CAB03EB401096ED002B94ED11
:1056A800003B80EC042B80ED040B80ED061B4FF0D3
:1056B800000038BF012002D20244AA42D7D9039C75
:1056C800A5427ED2A6457546C6D97AE0002C78D088
:1056D8000B99192900F2998000F0A0800B990122FA
:1056E8009FED550B0131069153EC101BDDF82CA0F2
:1056F800CDE90431DDE90498531C0026A2424FF09D
:10570800FF3103FB02F028BF13460293079201EB17
:105718005000089008988519672D68D845F2E06010
:10572800D021C2F22000069C05FB010000EBC40159
:1057380000EBCA0090ED008B91ED000B53EC182B99
:1057480051EC100B17F07BFD0CAA4B4602EB451BE6
:1057580042468BED028B17F0F1F9CDE9091040F2C2
:105768005020C2F22000D02105FB010000EBC4014B
:1057780000EBCA0090ED008B91ED000B53EC182B59
:1057880051EC100B17F05BFDDDE9093243EC192BE6
:1057980042464B4617F0D2F9079A41EC100B8BEDB5
:1057A800008B96428BED040B8BED069B38BF0136C0
:1057B80001D29642AED9039CA24202D2029AA242D8
:1057C8009AD901980CA94FF4506217F020FE0DF5F4
:1057D800536DBDEC048B01B0BDE8000FF0BD4AF677
:1057E8007032C2F22002682112F0F0FCFEDE45F2AF
:1057F800D0622846C2F22002682112F0E7FCFEDEE1
:105808004AF67032C2F2200203E045F2D062C2F2D8
:1058180020020B981A2112F0D9FCFEDE4AF66032FB
:105828001A20C2F220021A2112F0D0FCFEDE00BFBC
:105838000000000000909F4000000000000014409D
:10584800F0B503AF2DE9000F81B02DED0A8B8CB0B8
:10585800B0EE409A0D46F0EE609A814616F040FC94
:10586800064628460C4616F03BFC9FED1DAB44EC63
:10587800186B002DCDE90910B0EE4ABA2846F0EEB3
:105888006ABA0B9500F09981DDE909323046214664
:1058980016F05EFE3246234617F058FB41EC1B0B10
:1058A8000B980596B0F10108CDE9039400F0E1806A
:1058B800304621463246234617F048FB824608F018
:1058C800030002908B460B980238032810D24FF041
:1058D8000108029C002C40F08380CAE000BF00BF92
:1058E800000000000000F03F000000000000104031
:1058F8001FED031B28F0030008904FF0000851EC3F
:10590800110B1FED090BCDE9061055EC109B48460D
:1059180029464A462B4617F019FB02460B465046C5
:10592800594617F08CFC02460B4651EC1B0B17F03E
:105938000DFB064608F102000C4616F0D1FB0246A4
:105948000B4617F003FB02460B465046594617F024
:1059580076FC02460B463046214617F0F7FA044615
:1059680008F103000E4616F0BBFB02460B4617F083
:10597800EDFA02460B465046594617F060FC0246BF
:105988000B462046314617F0E1FA08F104080446B0
:105998000E46404616F0A4FB02460B4617F0D6FA10
:1059A80002460B465046594617F049FC02460B463C
:1059B8002046314617F0CAFADDE9063204460E469B
:1059C8004846294616F0C4FD41EC100B089846ECF1
:1059D8001B4B404599D108F10108029C002C48D086
:1059E800404616F07DFB02460B4617F0AFFA02461A
:1059F8000B465046594617F022FC02460B4651EC1E
:105A08001B0B17F0A3FA41EC1B0B012C31D00646F7
:105A180008F101000D4616F063FB02460B4617F02D
:105A280095FA02460B465046594617F008FC0246BE
:105A38000B463046294617F089FA41EC1B0B022C1D
:105A480017D0054608F102000E4616F049FB02463B
:105A58000B4617F07BFA02460B465046594617F09C
:105A6800EEFB02460B462846314617F06FFA41EC2A
:105A78001B0B51EC190B02460B4617F067FA9FED0A
:105A88009ECB02460B4651EC1C0B17F0D8FB41ECA1
:105A9800100B03F098F89FED9A1B51EC100B53EC88
:105AA800112B17F053FA804689460126304616F026
:105AB80017FB02460B464046494617F03FF8024698
:105AC8000B4651EC1C0BDDF82CB000245E4538BFAA
:105AD800012417F03BFA41EC1C0B5E4562D282466A
:105AE8000B98264486425DD830460D4616F0F8FAE3
:105AF80002460B464046494617F020F802460B98E6
:105B08000B464FF0000B864229460446504638BFE4
:105B18004FF0010B17F01AFA41EC1C0BA64241D2C8
:105B28005E44A6423ED8824630460D4616F0D8FA64
:105B380002460B464046494617F000F8DDF82CB0FF
:105B480002460B460024504629465E4538BF0124CC
:105B580017F0FCF941EC1C0B5E4523D282460B98EA
:105B6800264486421ED830460D4616F0B9FA02463B
:105B78000B464046494616F0E1FFDDF82CB00246D8
:105B88000B460024504629465E4538BF012417F0CD
:105B9800DDF941EC1C0B5E4504D20B982644864285
:105BA8007FF684AF51EC1B0B53EC1C2B17F0CEF98E
:105BB80041EC1B0B059EDDE903940B98B9EB000B38
:105BC8007CD0DDF828803246099D23464046294688
:105BD80017F035FB0B9030460891214642462B467C
:105BE80016F0B6FC9FED44CBCDE9061051EC190B2D
:105BF80053EC1C2B16F0ACFC9FED430BB0EE4CAAFB
:105C0800CDE90410F0EE6CAA51EC100B9FED3C0BA3
:105C18004FF00109CDE9021051EC100BCDE900104D
:105C2800484616F05DFA05460E460B982A4608992E
:105C3800334616F08DFCDDE9023216F089FCDDE909
:105C4800003217F083F904468846DDE906102A4633
:105C5800334616F07DFC2246434617F077F9804616
:105C68008A46DDE909102A46334616F071FC2A46B1
:105C7800334617F06BF902460B464046514616F07C
:105C88005DFF02460B46DDE9041017F05FF9024696
:105C98000B4651EC1C0B17F059F902460B4641EC28
:105CA8001C0B51EC1A0B16F053FC41EC1A0BD9459E
:105CB80038BF09F1010901D2D945B1D9B0EE481A66
:105CC8009FED110BF0EE681A03F03AFF51EC1B0B35
:105CD80053EC102B17F03AF902460B4651EC1A0B0D
:105CE80017F034F941EC100B0CB0BDEC0A8B01B085
:105CF800BDE8000FF0BD00BF000000000000F03F4D
:105D0800000000000000E03F000000000000F0BFBD
:105D1800F0B503AF2DE9000F81B02DED108B90B0D9
:105D280091ED00CB0D469FEDA2BB0446B0EE4C0AA8
:105D3800B0EE4B1AF0EE6C0AF0EE6B1A03F000FFAF
:105D480095ED02DBB0EE408AB0EE4B1AB0EE4D0A8C
:105D5800F0EE608AF0EE6D0AF0EE6B1A03F0F0FEDA
:105D680051EC180B53EC102B16F0F2FB41EC100B16
:105D780002F029FFB0EE4B1AF0EE6B1AB0EE408A33
:105D8800F0EE608A03F0DCFE95ED04ABB0EE409ACD
:105D9800B0EE4B1AB0EE4A0A8DED06ABF0EE609A03
:105DA800F0EE6A0AF0EE6B1AB0EE4BEAF0EE6BEA30
:105DB80003F0C6FE51EC190B53EC102B16F0C8FB80
:105DC80041EC100B02F0FFFEB0EE40FAB0EE4C1AB8
:105DD800B0EE4D0AF0EE60FAF0EE6D0AF0EE6C1AD5
:105DE80005F00EFB8DED040BB0EE4A0AB0EE481A32
:105DF800F0EE6A0AF0EE681A05F002FB95ED089BD2
:105E080051EC1C0B8DED020B53EC192B95ED0A0B85
:105E180095ED06BB8DED000BCDE90A01CDE90C230C
:105E280017F094F858EC1B9B05460E4651EC1D0BD9
:105E38004A464346CDE9080117F088F802460B4662
:105E48002846314617F0FBF9B0EE480A8246B0EE14
:105E58004E1A8B46F0EE680AF0EE6E1AB0EE4EAAB5
:105E6800F0EE6EAA03F06CFEB0EE40EAB0EE4A1A0D
:105E7800B0EE4F0AF0EE60EAF0EE6F0AF0EE6A1A42
:105E880003F05EFE53EC1E2B8DED0E0B9DED020B09
:105E9800504684ED069B594684ED180B9DED040B86
:105EA8009DED06AB9DED009B84ED140B84ED10FB7E
:105EB80084ED00CB84ED02BB84ED04DB84ED08ABFC
:105EC80084ED0A9B84ED0C8B16F038FE04904A464C
:105ED80002914346DDE90A0117F038F805460E46F7
:105EE800DDE90801DDE90C2317F030F802460B461E
:105EF8002846314616F02CFB53EC192B8046894670
:105F080051EC1A0BCDE90C23CDE90A0117F01EF864
:105F180002460B464046494616F01AFB08905BECD1
:105F280018AB069150EC1F1B00910990524604983B
:105F38005B46029941EC190B4046494616F0FEFDB6
:105F4800064641EC180B0D460699009ADDE9080350
:105F580084ED169B16F0F2FD80468946DDE90A01BC
:105F680032462B4616F0F2FFDDE90C2305460E46B5
:105F78005046594616F0EAFF2A46334617F05FF9AD
:105F88009DED0E0B49EC198B53EC102B16F0D6FD3A
:105F980041EC100B84ED0E8B84ED129B84ED1A0BF3
:105FA80010B0BDEC108B01B0BDE8000FF0BD00BF14
:105FB8000000000000000040B0B502AFF4EE400A57
:105FC800F1EE10FA6ED610EE903AB3F17E5F03D17F
:105FD800BDE8B04005F064B910EE100A022101EAEC
:105FE800937230F0004142EAD0750DD033F000438F
:105FF80021D0B3F1FF4F0FD1B1F1FF4F24D1032DC1
:1060080027D19FED2B0AB0BD022D47D30CBF9FEDC2
:106018002B0A9FED260AB0BDB1F1FF4F0BD003F15B
:1060280050648C4207D3CAB101F15060984215D22E
:106038009FED200A18E040F6DB71C3F6C97161F3E1
:106048001E0000EE100AB0BD032D1FD19FED170AE8
:10605800B0BD4AF68030C2F220001BE080EE200A74
:10606800B0EEC00A05F01CF9C5B1012D17D09FED9F
:10607800121A022D30EE010A07BF9FED101A31EEF9
:10608800400A9FED0A1A30EE010AB0BD4AF68C307C
:10609800C2F2200000EB850090ED000AB0BDB1EE21
:1060A800400AB0BD30EE200AB0BD00BFDB0F49C0CA
:1060B800E4CB16C0000000002EBDBB33DB0F494007
:1060C800F0B503AF2DE9000F81B02DED028B88B03C
:1060D80010EE100A40F6DB72B0EE408AC3F6497241
:1060E80020F00041914212D2B1F1665F80F0C48085
:1060F800B1F5801F80F045829FEDA90AF7EE000AEE
:1061080028EE000A8DED060A9DED060AA2E345F287
:10611800D232C4F27B02914280F076814CF6E432AE
:10612800C4F21602914280F037829FED9E0AB0F1C8
:10613800FF3F40F37D8130EE480A10EE100A15F05B
:1061480018FF02460B46CDE9041016F0FFFE024682
:106158000B468346894616F0F9FE9FED930B0546DC
:106168008846584653EC102B494616F0EFFE9FED33
:10617800900B53EC102B16F0EBF99FED8F0B0646A6
:106188000C46284653EC102B4146CDE9025816F030
:10619800DDFE02460B463046214616F0D9F9824606
:1061A8000C46584649462A46434616F0CFFE9FED10
:1061B800840B06468846584653EC102B494616F081
:1061C800C5FE9FED810B53EC102B16F0C1F902466A
:1061D8000B463046414616F0B9FE02460B4650467D
:1061E800214616F0B5F915F023FE059C4946049E94
:1061F800019058462246334616F0A8FE9FED740BD0
:1062080080468A46584653EC102B494616F09EFEA7
:106218009FED710B53EC102B16F09AF902460B46C2
:106228004046514616F092FE2246334616F090F943
:10623800DDE9022305460C464046514616F086FE27
:106248009FED670B06468A46584653EC102B494685
:1062580016F07CFE9FED640B53EC102B16F078F9CA
:1062680002460B463046514616F070FE2A46234633
:1062780016F06EF9019A7DE115F07BFE02460B4699
:1062880006460C4616F062FE32462346834688468A
:1062980016F05CFE9FED4E0B05460490894653ECC4
:1062A800102B03915846414616F050FE9FED4A0BBD
:1062B80053EC102B16F04CF902460B46284649467B
:1062C80016F044FE3246234616F042F99FED440B81
:1062D80006460591584653EC102B414616F036FEFB
:1062E8009FED410B53EC102B16F032F9044689460A
:1062F800584641465A46434616F028FE82460D4601
:10630800DDE9031052462B4616F020FE22464B4686
:1063180016F01CFE059B324616F01AF915F088FD9A
:106328009FED210B41460590584653EC102B16F073
:106338000DFE9FED1F0B53EC102B16F009F99FED86
:106348001E0B04460E46504653EC102B294616F0F9
:10635800FDFD02460B462046314616F0F9F89FED42
:10636800180B0E460490584653EC102B414616F075
:10637800EDFD9FED150B53EC102B16F0E9F8814657
:106388000C465846414652462B4616F0DFFD4A4613
:10639800234616F0DBFD024604980B46314650E2D0
:1063A80000008003DB0FC93F815E0CFDFFFFDFBFEC
:1063B800000000000000F03F423A05E15355A53FB8
:1063C8006950EEE04293F93E271E0FE887C056BF9A
:1063D800B2FB6E891011813F77ACCB545555C5BFC0
:1063E800A7463B8C87CDC63E74E7CAE2F9002ABFB0
:1063F800E4CB96C00000807BDB0F49C0DB0F49402F
:10640800DB0FC9C0DB0FC94043F2D612C4F2E20267
:10641800914280F06D814EF6E052C4F2AF02914293
:1064280080F06F81B0F1FF3F40F3CF821FED100A7B
:1064380038EE000A10EE100A15F09BFD02460B46D6
:10644800CDE9041016F082FD02460B4683468946C4
:1064580016F07CFD1FED2C0B05468846584653EC7C
:10646800102B494616F072FD1FED2F0B53EC102B25
:1064780016F06EF81FED300B06460C46284653EC16
:10648800102B4146CDE9025816F060FD02460B4636
:106498003046214616F05CF882460C465846494676
:1064A8002A46434616F052FD1FED3B0B064688462A
:1064B800584653EC102B494616F048FD1FED3E0B8D
:1064C80053EC102B16F044F802460B463046414672
:1064D80016F03CFD02460B465046214616F038F8A9
:1064E80015F0A6FC059C4946049E01905846224694
:1064F800334616F02BFD1FED4A0B80468A46584658
:1065080053EC102B494616F021FD1FED4D0B53ECB3
:10651800102B16F01DF802460B464046514616F061
:1065280015FD2246334616F013F8DDE90223054629
:106538000C464046514616F009FD1FED570B06461E
:106548008A46584653EC102B494616F0FFFC1FEDBF
:106558005A0B53EC102B15F0FBFF02460B46304646
:10656800514616F0F3FC2A46234615F0F1FF019A2E
:1065780082F0004208EE102A15F05AFC00EE900A4C
:1065880068E11FED640AF7EE000A38EE000A8DEDA7
:10659800070A9DED070A5DE1B0F1FF3FCCBF1FED93
:1065A8006A0A1FED6A0A38EE000A10EE100A15F0A2
:1065B800E0FC02460B4606460C4616F0C7FC32467F
:1065C800234682460D4616F0C1FC1FED7F0B83461D
:1065D8008946504653EC102B294616F0B7FC1FEDA0
:1065E800820B53EC102B15F0B3FF02460B465846AE
:1065F800494616F0ABFC3246234615F0A9FFCDE913
:1066080004105046294652462B4616F09FFC8846F1
:106618000246494658464346914616F097FC1FEDF8
:10662800900B04460E46504653EC102B294616F0A4
:106638008DFC1FED930B53EC102B15F089FF0246D0
:106648000B462046314616F081FCDDE9043215F090
:106658007FFF15F0EDFB1FEDAC0B2946059050466A
:1066680053EC102B16F072FC1FEDAF0B53EC102BF4
:1066780015F06EFF1FEDB00B04460E46484653EC6E
:10668800102B414616F062FC02460B462046314666
:1066980015F05EFF04908B46504629464A4643460D
:1066A80016F054FC1FEDBA0B06460C46504653EC48
:1066B800102B294616F04AFC1FEDBD0B53EC102B8E
:1066C80015F046FF02460B463046214616F03EFCC2
:1066D800024604980B46594615F03AFF15F0A8FBF8
:1066E80080F0004000EE900A059880F00040AFE08E
:1066F800C80DFE2840F2B78078EE480AB0EE608AEE
:10670800A8E0B0F1FF3FCCBF1FEDC30A1FEDC30ADD
:1067180038EE000A10EE100A15F02BFC02460B4664
:1067280006460C4616F012FC3246234682460D46B3
:1067380016F00CFC1FEDDA0B83468946504653ECE5
:10674800102B294616F002FC1FEDDD0B53EC102B25
:1067580015F0FEFE02460B465846494616F0F6FB73
:106768003246234615F0F4FECDE90410504629467A
:1067780052462B4616F0EAFB8846024649465846DA
:106788004346914616F0E2FB9FEDEF0B04460E469A
:10679800504653EC102B294616F0D8FB9FEDEC0B16
:1067A80053EC102B15F0D4FE02460B46204631461A
:1067B80016F0CCFBDDE9043215F0CAFE15F038FB03
:1067C8009FEDE50B29460590504653EC102B16F02B
:1067D800BDFB9FEDE30B53EC102B15F0B9FE9FEDBD
:1067E800E20B04460E46484653EC102B414616F081
:1067F800ADFB02460B462046314615F0A9FE049033
:106808008B46504629464A46434616F09FFB9FED65
:10681800D80B06460C46504653EC102B294616F06A
:1068280095FB9FEDD50B53EC102B15F091FE02460E
:106838000B463046214616F089FB02460B46049863
:10684800594615F085FE15F0F3FA00EE900A059802
:1068580008EE100AB0EE480A08B0BDEC028B01B091
:10686800BDE8000FF0BDB0EE480A00F01DFC54EC86
:10687800105B0590284621462A46234616F066FBFB
:10688800804689462846214642464B4616F05EFB1E
:106898009FEDA90B064603908A4653EC102B0291F4
:1068A8004046494616F052FB9FEDA50B53EC102BC2
:1068B80015F04EFE02460B463046514616F046FB92
:1068C80002460B462846214615F042FE9FED9E0BD8
:1068D80004460491404653EC102B494616F036FB0B
:1068E8009FED9B0B53EC102B15F032FE05468A46A4
:1068F8004046494642464B4616F028FB83460E461C
:10690800DDE902105A46334616F020FB2A46534664
:1069180016F01CFB049B224615F01AFE15F088FAA7
:106928009FED8D0B49460490404653EC102B16F012
:106938000DFB9FED8B0B53EC102B15F009FE9FED13
:106948008A0B05460C46584653EC102B314616F078
:10695800FDFA02460B462846214615F0F9FD9FED43
:10696800840B05460391404653EC102B494616F01C
:10697800EDFA9FED810B53EC102B15F0E9FD8246E3
:106988000C46404649465A46334616F0DFFA524608
:10699800234616F0DBFA0B4603990246284615F003
:1069A800D7FD15F045FA00EE100A0498F0EE400AFB
:1069B80008EE100A059800F00300DFE800F0020373
:1069C800B1B647E7F1EE480AB3E09FED6D0A38EE3D
:1069D800000A10EE100A15F0CCFA02460B46CDE973
:1069E800041016F0B3FA02460B468346894616F0A1
:1069F800ADFA9FED590B05468846584653EC102BC7
:106A0800494616F0A3FA9FED560B53EC102B15F0E0
:106A18009FFD9FED550B06460C46284653EC102B60
:106A28004146CDE9025816F091FA02460B46304627
:106A3800214615F08DFD82460C46584649462A46A1
:106A4800434616F083FA9FED4A0B06468846584699
:106A580053EC102B494616F079FA9FED470B53EC8F
:106A6800102B15F075FD02460B463046414616F0D0
:106A78006DFA02460B465046214615F069FD15F0A1
:106A8800D7F9059C4946049E01905846224633464C
:106A980016F05CFA9FED280B80468A46584653EC60
:106AA800102B494616F052FA9FED250B53EC102B8C
:106AB80015F04EFD02460B464046514616F046FA82
:106AC8002246334615F044FDDDE9022305460C460F
:106AD8004046514616F03AFA9FED1B0B06468A4689
:106AE800584653EC102B494616F030FA9FED180B18
:106AF80053EC102B15F02CFD02460B463046514640
:106B080016F024FA2A46234615F022FD019A08EECB
:106B1800102A15F08DF980F0004000EE900A99E6F1
:106B2800F1EE400AB1EE488A94E6B1EE400AF0EE82
:106B3800480AB0EE408A8DE6B2FB6E891011813F9B
:106B480077ACCB545555C5BFA7463B8C87CDC63EC1
:106B580074E7CAE2F9002ABF815E0CFDFFFFDFBFC0
:106B6800000000000000F03F423A05E15355A53F00
:106B78006950EEE04293F93E271E0FE887C056BFE2
:106B8800E4CB9640D4D4D4D4F0B503AF2DE9000BB0
:106B98002DED028B86B054EC105B42F2FC10B0EE87
:106BA800408AC3F6E970F0EE608A24F00046864217
:106BB80020D2B6F1795F35D29FED2D0B28462146BC
:106BC80053EC102B15F0C4FC9FED2B0B8046894627
:106BD800284653EC102B214616F0B8F9B6F5801F5D
:106BE80024BF4946404641EC100B8DED000B9DED4E
:106BF800000B0DE04FF6FF70C7F6EF70864219D90B
:106C0800284621462A46234616F019FB41EC180B64
:106C1800B0EE480AF0EE680A06B0BDEC028BBDE89B
:106C2800000BF0BDB0EE480A9FED0F1BF0EE680AAE
:106C380000200DE0B0EE480A6846F0EE680A02F05F
:106C480093FA02989DED000B9DED041B00F00100E6
:106C580006B0BDEC028BBDE8000BBDE8F04000F0CB
:106C68000FB800BF00BF00BF000000000000000018
:106C780000000000000070470000000000007038AD
:106C8800F0B503AF2DE9000F81B02DED028B8CB06C
:106C980055EC106B4FF6F871B0EE418AC7F6FF71EC
:106CA800F0EE618A49F22742C3F6E572CDE9005059
:106CB8002940049191423BD98DED080BB5F1FF3F76
:106CC8009DF827109FEDD40B81F080018DF82710D7
:106CD80051EC100B089A099BC4BF32462B468DED28
:106CE8000A8B9DF82F60B5F1FF3FDDF828C086F0CC
:106CF80080068DF82F6056EC184BDDF82CE0DCBFD1
:106D08006446764616F09BFA9FEDC50B0546884605
:106D1800224651EC100B334616F091FA02460B4608
:106D28002846414615F014FC9FEDBF8B41EC100B33
:106D380051EC100B0390059102460B4616F006F92C
:106D480002460B468346894616F000F99FEDB80BBC
:106D580005460C4653EC102B16F0F8F89FEDB60BD1
:106D680053EC102B15F0F4FB02460B46284621463F
:106D780016F0ECF89FEDB20B53EC102B15F0E8FB76
:106D880002460B462846214616F0E0F89FEDAE0B6A
:106D980053EC102B15F0DCFB02460B462846214627
:106DA80016F0D4F89FEDAA0B53EC102B15F0D0FB7E
:106DB80002460B462846214616F0C8F89FEDA60B5A
:106DC80053EC102B15F0C4FB9FEDA50B80460E4627
:106DD800284653EC102B214616F0B8F89FEDA20B6D
:106DE80053EC102B15F0B4FB02460B4628462146FF
:106DF80016F0ACF89FED9E0B53EC102B15F0A8FB8A
:106E080002460B462846214616F0A0F89FED9A0B3D
:106E180053EC102B15F09CFB02460B4628462146E6
:106E280016F094F89FED960B53EC102B15F090FB91
:106E380002460B462846214616F088F89FED920B2D
:106E480053EC102B15F084FB02460B465846494676
:106E58004D46CDF8089016F079F802460B464046A4
:106E6800314615F075FBDDF80CA00646DDF81490E8
:106E78000C465A462B465046494616F067F83246A5
:106E8800234680460D4616F061F856EC184B02462C
:106E98000B462046314615F05BFB0B46029902462D
:106EA800584616F053F802460B462046314615F070
:106EB8004FFB9FED770B04460E46404653EC102BD4
:106EC8002946D0464D4616F041F82246334615F07D
:106ED8003FFB82468B464046494652465B4615F084
:106EE80037FB044641EC100B04980E4649F2274143
:106EF800C3F6E57188424BD9019815F094F802461B
:106F08000B4615F025FB9FED660B02460B4651EC30
:106F1800100B16F094F9224633460490029115F0AE
:106F280017FB0546C1468846204631462246334669
:106F380016F00CF82A46434615F000FE02460B46AA
:106F48005046594616F07BF90B46059902464846C5
:106F580015F0FEFA02460B4615F0FAFA02460B4601
:106F68000498029916F06BF941EC100B8DED060BA5
:106F78009DF81F20069B82F080028DF81F20009E3E
:106F8800079A002E5CBF0A46034642EC103B3CE0E1
:106F98000198D0B39FED400B2246334651EC100BBD
:106FA80015F0CCFD44468846049000203146002266
:106FB800434615F0CBFF9FED3A0B53EC102B15F021
:106FC800C7FA029089460020314622462B4616F021
:106FD80036F902460B465046594616F030F900225B
:106FE800434615F0B3FF024602980B46494615F092
:106FF800AFFA024604980B46414615F0A7FF002257
:10700800434615F0A5FA41EC100B0CB0BDEC028B11
:1070180001B0BDE8000FF0BD182D4454FB21E93F35
:10702800075C143326A6813C000000000000000025
:10703800735360DBCB75F3BEA69237A0887E143FEE
:107048000165F2F2D844433F280356C9226D6D3FCB
:1070580037D60684F464963F7AFE10111111C13FA9
:10706800D47ABF74702AFB3EE9A7F0320FB8123FFA
:1070780068108D1AF726303F1583E0FEC8DB573FAE
:1070880093846EE9E326823FFE41B31BBAA1AB3F6E
:10709800635555555555D53F000000000000F0BF19
:1070A800000000000000F03FF0B503AF2DE9000F2D
:1070B80081B02DED028B8AB010EE105A0020CDE978
:1070C8000800284614F055FF8146884640F6DB71D3
:1070D80025F00040C4F6C95188425ED29FED500B9E
:1070E8004846414653EC102B15F030FF9FED4E0BF0
:1070F80053EC102B15F02CFA9FED4D0B53EC102B85
:1071080015F026FA9FED4C0B05460E4653EC102B56
:1071180015F00EF803902846314616F016F99FED43
:10712800480B04462846314653EC102B15F00EFF49
:1071380002460B464846414615F00AFA9FED420BB7
:1071480080468946284653EC102B314615F0FEFE42
:107158009FED3F0B834603988A4653EC102B31462C
:107168000028284608BF4FF0004416F0B8F8002859
:10717800404649465A46534618BF6FF0004415F03A
:10718800E7F941EC180B284631462A46334615F0F4
:10719800D6FB002818BF002435E0C10DFE2909D907
:1071A800484641464A46434616F049F841EC180B12
:1071B800002428E06FF0950101EBD054A0EBC450F7
:1071C80014F0D7FE41EC100B0020CDE9004006A8D2
:1071D80008AA012101238DED060B00F011F90446E0
:1071E800B5F1FF3F02DD9DED088B0CE09DED080B2E
:1071F80064428DED040B9DF8170080F080008DF837
:1072080017009DED048BB0EE480A2046F0EE680AA0
:107218000AB0BDEC028B01B0BDE8000FF0BD00BFA5
:1072280083C8C96D305FE43F0000000000003843A8
:1072380000000000000038C3000000000000E0C1AA
:1072480000000050FB21F9BF63621A61B41051BEFF
:107258000000C0FFFFFFDF41F0B503AF2DE9000FCD
:1072680081B02DED028B86B051EC100BB0EE418A47
:10727800F0EE618A02460B46CDE9040115F066FE80
:107288009FED4F0B8146884653EC102B15F05EFEA0
:107298009FED4D0B53EC102B15F05AF902460B4697
:1072A8004846414615F052FE9FED490B53EC102B12
:1072B80015F04EF902460B464846414615F046FE83
:1072C8009FED450B06468A46484653EC102B41462F
:1072D80015F03CFE9FED420B53EC102B15F038F9DE
:1072E80002460B464846414615F030FE9FED3E0BE0
:1072F80053EC102B15F02CF904460D464846414630
:107308004A46434615F022FE02460B4615F01EFE7D
:1073180022462B4615F01AFE02460B4630465146C9
:1073280015F016F99FED320BCDE90110484653ECE4
:10733800102B414615F00AFE9FED2F0B05460C4613
:107348002A465AEC106B23463046514615F077FF13
:1073580083460B460391304651465A4615F06FFF57
:107368002A46234615F06BFFDDE9013205468A46B9
:107378004846414615F0EAFD53EC182B06460C46E4
:10738800DDE9040115F0E2FD02460B4630462146D0
:1073980015F055FF02460B462846514615F0D8F819
:1073A8000B4603990246584615F0D2F841EC100BEB
:1073B80006B0BDEC028B01B0BDE8000FF0BD00BF08
:1073C8009015CB19A001FA3E7751C1166CC156BF72
:1073D8004C5555555555A53FD43888BEE9FAA8BD32
:1073E800C4B1B4BD9EEE213EAD529C804F7E92BE8C
:1073F800000000000000E03F000000000000F03F37
:10740800F0B503AF2DE9000F81B02DED108BADF570
:10741800347D1B9028A80C46A021019215F08CFB06
:1074280050A8A02115F088FB78A8A02115F084FBAE
:10743800A0A8502116F023F8D7F808904AF6AB21F7
:10744800C2F6AA21FA68A9F10300A4F1010B9FED85
:10745800E48B002550FB01F04AF61841C2F22001E6
:1074680051F82220119202EB0B08811001EBD07029
:1074780020EAE0701290A0EB0B041046B0EE480A28
:107488004545F0EE680A4FF0000638BF0126002C8B
:1074980009D44AF66840C2F2200050F8240014F0DB
:1074A800C2FD41EC100B28A8454500EBC50080ED56
:1074B800000B03D2354401344545DFD91198A9F1B1
:1074C80018089FEDC78B4FF0000AB0EE489A0AEBF8
:1074D8000B04F0EE689A4FF000090026824538BF89
:1074E8004FF001091B98A11B00EBC60090ED000BA3
:1074F80028A800EBC10090ED001B51EC100B53ECD9
:10750800112B15F023FD02460B4651EC190B0025F3
:107518005E4538BF012515F01BF841EC190B5E4597
:1075280002D22E445E45DDD978A800EBCA0080ED72
:10753800009B1198824502D2CA448245C5D99FED65
:10754800AA0B4FF6024C1298CFF6FF7C55EC103B75
:10755800A0EB8009A6A008EBC90414F5F96F98BF41
:10756800083090ED000B644540F6FD3004F2C93157
:1075780056EC102B0795A8BF2E460893A8BF1A46AD
:107588008442A4F2FF35B8BF204640F2FE739C4205
:1075980088BFA0F2FE754FF2704014F5396FCFF630
:1075A800FF70C8BF204614F5F96F98BF00F29271BA
:1075B8009C4293A0234688BF083064450491B8BF15
:1075C8000B4690ED000BB4F5806F0995A8BF2B46CC
:1075D80003F2FF3351EC100BB4F5806FBCBF31469A
:1075E80010461B05002215F0B1FCCDE90510A0A935
:1075F80011989FED87DB9FED88EB01EB80009FEDF5
:1076080088FB08380D90C4F117009FED879B00F0A8
:107618001F000C90C4F118009FED71BB00F01F0013
:107628000B9001F108000390081F11999FED808BC2
:107638009FED81CB0A904FEAC9000F94009000E0BB
:10764800414678A8002900EBC100109190ED00ABED
:1076580000F086800A98884651EC1AAB1A9053ECD1
:10766800182BCDF85C801691504615F06FFC59EC3C
:107678001F2B05460E4615924B4614F059FD8046C1
:107688002846314615F061FE53EC192B044628466E
:107698003146B8F1000FCDE9182308BF4FF0004478
:1076A80015F01DFE0028284631462A46334618BFE5
:1076B8006FF0004415F043F9002818BF0024204655
:1076C80014F0B1FC53EC1C2BCDE9131015F03EFC63
:1076D8000B4616990246504614F03AFF159A4B4647
:1076E80005460E4614F024FD82462846314615F01C
:1076F8002CFEDDF85C90044678A8DDE91332A9F188
:10770800010800EBC80090ED000B51EC100B14F0D1
:107718001FFFBAF1000F08BF4FF00044DDE918233E
